{
  "_format": "hh3-artifact-1",
  "contractName": "BatchMinter",
  "sourceName": "contracts/BatchMinter.sol",
  "abi": [
    {
      "inputs": [
        {
          "internalType": "address",
          "name": "initialOwner",
          "type": "address"
        },
        {
          "internalType": "address",
          "name": "nftAddress",
          "type": "address"
        }
      ],
      "stateMutability": "nonpayable",
      "type": "constructor"
    },
    {
      "inputs": [
        {
          "internalType": "address",
          "name": "owner",
          "type": "address"
        }
      ],
      "name": "OwnableInvalidOwner",
      "type": "error"
    },
    {
      "inputs": [
        {
          "internalType": "address",
          "name": "account",
          "type": "address"
        }
      ],
      "name": "OwnableUnauthorizedAccount",
      "type": "error"
    },
    {
      "anonymous": false,
      "inputs": [
        {
          "indexed": true,
          "internalType": "address",
          "name": "to",
          "type": "address"
        },
        {
          "indexed": true,
          "internalType": "uint256",
          "name": "tokenId",
          "type": "uint256"
        },
        {
          "indexed": false,
          "internalType": "string",
          "name": "uri",
          "type": "string"
        }
      ],
      "name": "Minted",
      "type": "event"
    },
    {
      "anonymous": false,
      "inputs": [
        {
          "indexed": true,
          "internalType": "address",
          "name": "previousOwner",
          "type": "address"
        },
        {
          "indexed": true,
          "internalType": "address",
          "name": "newOwner",
          "type": "address"
        }
      ],
      "name": "OwnershipTransferred",
      "type": "event"
    },
    {
      "inputs": [
        {
          "internalType": "address[]",
          "name": "recipients",
          "type": "address[]"
        },
        {
          "internalType": "string",
          "name": "uri",
          "type": "string"
        }
      ],
      "name": "mintBatchSameURI",
      "outputs": [
        {
          "internalType": "uint256[]",
          "name": "tokenIds",
          "type": "uint256[]"
        }
      ],
      "stateMutability": "nonpayable",
      "type": "function"
    },
    {
      "inputs": [
        {
          "internalType": "address[]",
          "name": "recipients",
          "type": "address[]"
        },
        {
          "internalType": "string[]",
          "name": "uris",
          "type": "string[]"
        }
      ],
      "name": "mintBatchWithURIs",
      "outputs": [
        {
          "internalType": "uint256[]",
          "name": "tokenIds",
          "type": "uint256[]"
        }
      ],
      "stateMutability": "nonpayable",
      "type": "function"
    },
    {
      "inputs": [
        {
          "internalType": "address",
          "name": "to",
          "type": "address"
        },
        {
          "internalType": "string",
          "name": "uri",
          "type": "string"
        }
      ],
      "name": "mintOne",
      "outputs": [
        {
          "internalType": "uint256",
          "name": "tokenId",
          "type": "uint256"
        }
      ],
      "stateMutability": "nonpayable",
      "type": "function"
    },
    {
      "inputs": [],
      "name": "nft",
      "outputs": [
        {
          "internalType": "contract ISpeedrunStylus",
          "name": "",
          "type": "address"
        }
      ],
      "stateMutability": "view",
      "type": "function"
    },
    {
      "inputs": [],
      "name": "owner",
      "outputs": [
        {
          "internalType": "address",
          "name": "",
          "type": "address"
        }
      ],
      "stateMutability": "view",
      "type": "function"
    },
    {
      "inputs": [],
      "name": "renounceOwnership",
      "outputs": [],
      "stateMutability": "nonpayable",
      "type": "function"
    },
    {
      "inputs": [
        {
          "internalType": "address",
          "name": "newOwner",
          "type": "address"
        }
      ],
      "name": "transferOwnership",
      "outputs": [],
      "stateMutability": "nonpayable",
      "type": "function"
    }
  ],
  "bytecode": "0x60a060405234801561000f575f5ffd5b50604051610c18380380610c1883398101604081905261002e91610129565b816001600160a01b03811661005d57604051631e4fbdf760e01b81525f60048201526024015b60405180910390fd5b610066816100bf565b506001600160a01b0381166100ad5760405162461bcd60e51b815260206004820152600d60248201526c6e66742061646472207a65726f60981b6044820152606401610054565b6001600160a01b03166080525061015a565b5f80546001600160a01b038381166001600160a01b0319831681178455604051919092169283917f8be0079c531659141344cd1fd0a4f28419497f9722a3daafe3b4186f6b6457e09190a35050565b80516001600160a01b0381168114610124575f5ffd5b919050565b5f5f6040838503121561013a575f5ffd5b6101438361010e565b91506101516020840161010e565b90509250929050565b608051610a926101865f395f81816083015281816101f50152818161036701526105080152610a925ff3fe608060405234801561000f575f5ffd5b506004361061007a575f3560e01c8063c16f7dab11610058578063c16f7dab146100dc578063c1c00690146100fc578063c65643101461011d578063f2fde38b14610130575f5ffd5b806347ccca021461007e578063715018a6146100c25780638da5cb5b146100cc575b5f5ffd5b6100a57f000000000000000000000000000000000000000000000000000000000000000081565b6040516001600160a01b0390911681526020015b60405180910390f35b6100ca610143565b005b5f546001600160a01b03166100a5565b6100ef6100ea3660046107d2565b610156565b6040516100b9919061083e565b61010f61010a36600461089b565b610347565b6040519081526020016100b9565b6100ef61012b3660046108ea565b61042d565b6100ca61013e36600461094a565b610694565b61014b6106d1565b6101545f6106fd565b565b60606101606106d1565b83806101a35760405162461bcd60e51b815260206004820152600d60248201526c6e6f20726563697069656e747360981b60448201526064015b60405180910390fd5b8067ffffffffffffffff8111156101bc576101bc61096a565b6040519080825280602002602001820160405280156101e5578160200160208202803683370190505b5091505f5b8181101561033d575f7f00000000000000000000000000000000000000000000000000000000000000006001600160a01b031663d204c45e8989858181106102345761023461097e565b9050602002016020810190610249919061094a565b88886040518463ffffffff1660e01b8152600401610269939291906109ba565b6020604051808303815f875af1158015610285573d5f5f3e3d5ffd5b505050506040513d601f19601f820116820180604052508101906102a991906109e7565b9050808483815181106102be576102be61097e565b602002602001018181525050808888848181106102dd576102dd61097e565b90506020020160208101906102f2919061094a565b6001600160a01b03167fe7cd4ce7f2a465edc730269a1305e8a48bad821e8fb7e152ec413829c01a53c4888860405161032c9291906109fe565b60405180910390a3506001016101ea565b5050949350505050565b5f6103506106d1565b604051636902622f60e11b81526001600160a01b037f0000000000000000000000000000000000000000000000000000000000000000169063d204c45e906103a0908790879087906004016109ba565b6020604051808303815f875af11580156103bc573d5f5f3e3d5ffd5b505050506040513d601f19601f820116820180604052508101906103e091906109e7565b905080846001600160a01b03167fe7cd4ce7f2a465edc730269a1305e8a48bad821e8fb7e152ec413829c01a53c4858560405161041e9291906109fe565b60405180910390a39392505050565b60606104376106d1565b83806104755760405162461bcd60e51b815260206004820152600d60248201526c6e6f20726563697069656e747360981b604482015260640161019a565b8083146104b65760405162461bcd60e51b815260206004820152600f60248201526e0d8cadccee8d040dad2e6dac2e8c6d608b1b604482015260640161019a565b8067ffffffffffffffff8111156104cf576104cf61096a565b6040519080825280602002602001820160405280156104f8578160200160208202803683370190505b5091505f5b8181101561033d575f7f00000000000000000000000000000000000000000000000000000000000000006001600160a01b031663d204c45e8989858181106105475761054761097e565b905060200201602081019061055c919061094a565b88888681811061056e5761056e61097e565b90506020028101906105809190610a19565b6040518463ffffffff1660e01b815260040161059e939291906109ba565b6020604051808303815f875af11580156105ba573d5f5f3e3d5ffd5b505050506040513d601f19601f820116820180604052508101906105de91906109e7565b9050808483815181106105f3576105f361097e565b602002602001018181525050808888848181106106125761061261097e565b9050602002016020810190610627919061094a565b6001600160a01b03167fe7cd4ce7f2a465edc730269a1305e8a48bad821e8fb7e152ec413829c01a53c48888868181106106635761066361097e565b90506020028101906106759190610a19565b6040516106839291906109fe565b60405180910390a3506001016104fd565b61069c6106d1565b6001600160a01b0381166106c557604051631e4fbdf760e01b81525f600482015260240161019a565b6106ce816106fd565b50565b5f546001600160a01b031633146101545760405163118cdaa760e01b815233600482015260240161019a565b5f80546001600160a01b038381166001600160a01b0319831681178455604051919092169283917f8be0079c531659141344cd1fd0a4f28419497f9722a3daafe3b4186f6b6457e09190a35050565b5f5f83601f84011261075c575f5ffd5b50813567ffffffffffffffff811115610773575f5ffd5b6020830191508360208260051b850101111561078d575f5ffd5b9250929050565b5f5f83601f8401126107a4575f5ffd5b50813567ffffffffffffffff8111156107bb575f5ffd5b60208301915083602082850101111561078d575f5ffd5b5f5f5f5f604085870312156107e5575f5ffd5b843567ffffffffffffffff8111156107fb575f5ffd5b6108078782880161074c565b909550935050602085013567ffffffffffffffff811115610826575f5ffd5b61083287828801610794565b95989497509550505050565b602080825282518282018190525f918401906040840190835b81811015610875578351835260209384019390920191600101610857565b509095945050505050565b80356001600160a01b0381168114610896575f5ffd5b919050565b5f5f5f604084860312156108ad575f5ffd5b6108b684610880565b9250602084013567ffffffffffffffff8111156108d1575f5ffd5b6108dd86828701610794565b9497909650939450505050565b5f5f5f5f604085870312156108fd575f5ffd5b843567ffffffffffffffff811115610913575f5ffd5b61091f8782880161074c565b909550935050602085013567ffffffffffffffff81111561093e575f5ffd5b6108328782880161074c565b5f6020828403121561095a575f5ffd5b61096382610880565b9392505050565b634e487b7160e01b5f52604160045260245ffd5b634e487b7160e01b5f52603260045260245ffd5b81835281816020850137505f828201602090810191909152601f909101601f19169091010190565b6001600160a01b03841681526040602082018190525f906109de9083018486610992565b95945050505050565b5f602082840312156109f7575f5ffd5b5051919050565b602081525f610a11602083018486610992565b949350505050565b5f5f8335601e19843603018112610a2e575f5ffd5b83018035915067ffffffffffffffff821115610a48575f5ffd5b60200191503681900382131561078d575f5ffdfea264697066735822122071c5b1b0ff3de2cc0395cd3a2e8da38a40e2fec8207d72cb475c7038abacf5ef64736f6c634300081c0033",
  "linkReferences": {},
  "deployedLinkReferences": {},
  "immutableReferences": {
    "197": [
      {
        "length": 32,
        "start": 131
      },
      {
        "length": 32,
        "start": 501
      },
      {
        "length": 32,
        "start": 871
      },
      {
        "length": 32,
        "start": 1288
      }
    ]
  },
  "inputSourceName": "project/contracts/BatchMinter.sol",
  "buildInfoId": "solc-0_8_28-c5ac9c65bb702a77a0f7200cb49dfdec8e603f6f"
}