{
  "_format": "hh3-artifact-1",
  "contractName": "XCAN",
  "sourceName": "contracts/XCAN.sol",
  "abi": [
    {
      "inputs": [
        {
          "internalType": "address",
          "name": "initialOwner",
          "type": "address"
        },
        {
          "internalType": "address",
          "name": "initialMinter",
          "type": "address"
        }
      ],
      "stateMutability": "nonpayable",
      "type": "constructor"
    },
    {
      "inputs": [
        {
          "internalType": "address",
          "name": "sender",
          "type": "address"
        },
        {
          "internalType": "uint256",
          "name": "tokenId",
          "type": "uint256"
        },
        {
          "internalType": "address",
          "name": "owner",
          "type": "address"
        }
      ],
      "name": "ERC721IncorrectOwner",
      "type": "error"
    },
    {
      "inputs": [
        {
          "internalType": "address",
          "name": "operator",
          "type": "address"
        },
        {
          "internalType": "uint256",
          "name": "tokenId",
          "type": "uint256"
        }
      ],
      "name": "ERC721InsufficientApproval",
      "type": "error"
    },
    {
      "inputs": [
        {
          "internalType": "address",
          "name": "approver",
          "type": "address"
        }
      ],
      "name": "ERC721InvalidApprover",
      "type": "error"
    },
    {
      "inputs": [
        {
          "internalType": "address",
          "name": "operator",
          "type": "address"
        }
      ],
      "name": "ERC721InvalidOperator",
      "type": "error"
    },
    {
      "inputs": [
        {
          "internalType": "address",
          "name": "owner",
          "type": "address"
        }
      ],
      "name": "ERC721InvalidOwner",
      "type": "error"
    },
    {
      "inputs": [
        {
          "internalType": "address",
          "name": "receiver",
          "type": "address"
        }
      ],
      "name": "ERC721InvalidReceiver",
      "type": "error"
    },
    {
      "inputs": [
        {
          "internalType": "address",
          "name": "sender",
          "type": "address"
        }
      ],
      "name": "ERC721InvalidSender",
      "type": "error"
    },
    {
      "inputs": [
        {
          "internalType": "uint256",
          "name": "tokenId",
          "type": "uint256"
        }
      ],
      "name": "ERC721NonexistentToken",
      "type": "error"
    },
    {
      "inputs": [
        {
          "internalType": "address",
          "name": "owner",
          "type": "address"
        }
      ],
      "name": "OwnableInvalidOwner",
      "type": "error"
    },
    {
      "inputs": [
        {
          "internalType": "address",
          "name": "account",
          "type": "address"
        }
      ],
      "name": "OwnableUnauthorizedAccount",
      "type": "error"
    },
    {
      "anonymous": false,
      "inputs": [
        {
          "indexed": true,
          "internalType": "address",
          "name": "owner",
          "type": "address"
        },
        {
          "indexed": true,
          "internalType": "address",
          "name": "approved",
          "type": "address"
        },
        {
          "indexed": true,
          "internalType": "uint256",
          "name": "tokenId",
          "type": "uint256"
        }
      ],
      "name": "Approval",
      "type": "event"
    },
    {
      "anonymous": false,
      "inputs": [
        {
          "indexed": true,
          "internalType": "address",
          "name": "owner",
          "type": "address"
        },
        {
          "indexed": true,
          "internalType": "address",
          "name": "operator",
          "type": "address"
        },
        {
          "indexed": false,
          "internalType": "bool",
          "name": "approved",
          "type": "bool"
        }
      ],
      "name": "ApprovalForAll",
      "type": "event"
    },
    {
      "anonymous": false,
      "inputs": [
        {
          "indexed": false,
          "internalType": "uint256",
          "name": "_fromTokenId",
          "type": "uint256"
        },
        {
          "indexed": false,
          "internalType": "uint256",
          "name": "_toTokenId",
          "type": "uint256"
        }
      ],
      "name": "BatchMetadataUpdate",
      "type": "event"
    },
    {
      "anonymous": false,
      "inputs": [
        {
          "indexed": false,
          "internalType": "uint256",
          "name": "_tokenId",
          "type": "uint256"
        }
      ],
      "name": "MetadataUpdate",
      "type": "event"
    },
    {
      "anonymous": false,
      "inputs": [
        {
          "indexed": true,
          "internalType": "address",
          "name": "to",
          "type": "address"
        },
        {
          "indexed": true,
          "internalType": "uint256",
          "name": "tokenId",
          "type": "uint256"
        },
        {
          "indexed": false,
          "internalType": "string",
          "name": "uri",
          "type": "string"
        }
      ],
      "name": "Minted",
      "type": "event"
    },
    {
      "anonymous": false,
      "inputs": [
        {
          "indexed": true,
          "internalType": "address",
          "name": "newMinter",
          "type": "address"
        }
      ],
      "name": "MinterUpdated",
      "type": "event"
    },
    {
      "anonymous": false,
      "inputs": [
        {
          "indexed": true,
          "internalType": "address",
          "name": "previousOwner",
          "type": "address"
        },
        {
          "indexed": true,
          "internalType": "address",
          "name": "newOwner",
          "type": "address"
        }
      ],
      "name": "OwnershipTransferred",
      "type": "event"
    },
    {
      "anonymous": false,
      "inputs": [
        {
          "indexed": true,
          "internalType": "address",
          "name": "from",
          "type": "address"
        },
        {
          "indexed": true,
          "internalType": "address",
          "name": "to",
          "type": "address"
        },
        {
          "indexed": true,
          "internalType": "uint256",
          "name": "tokenId",
          "type": "uint256"
        }
      ],
      "name": "Transfer",
      "type": "event"
    },
    {
      "inputs": [
        {
          "internalType": "address",
          "name": "to",
          "type": "address"
        },
        {
          "internalType": "uint256",
          "name": "tokenId",
          "type": "uint256"
        }
      ],
      "name": "approve",
      "outputs": [],
      "stateMutability": "nonpayable",
      "type": "function"
    },
    {
      "inputs": [
        {
          "internalType": "address",
          "name": "owner",
          "type": "address"
        }
      ],
      "name": "balanceOf",
      "outputs": [
        {
          "internalType": "uint256",
          "name": "",
          "type": "uint256"
        }
      ],
      "stateMutability": "view",
      "type": "function"
    },
    {
      "inputs": [
        {
          "internalType": "uint256",
          "name": "tokenId",
          "type": "uint256"
        }
      ],
      "name": "getApproved",
      "outputs": [
        {
          "internalType": "address",
          "name": "",
          "type": "address"
        }
      ],
      "stateMutability": "view",
      "type": "function"
    },
    {
      "inputs": [
        {
          "internalType": "address",
          "name": "owner",
          "type": "address"
        },
        {
          "internalType": "address",
          "name": "operator",
          "type": "address"
        }
      ],
      "name": "isApprovedForAll",
      "outputs": [
        {
          "internalType": "bool",
          "name": "",
          "type": "bool"
        }
      ],
      "stateMutability": "view",
      "type": "function"
    },
    {
      "inputs": [
        {
          "internalType": "address[]",
          "name": "recipients",
          "type": "address[]"
        },
        {
          "internalType": "string",
          "name": "uri",
          "type": "string"
        }
      ],
      "name": "mintBatchSameURI",
      "outputs": [
        {
          "internalType": "uint256[]",
          "name": "tokenIds",
          "type": "uint256[]"
        }
      ],
      "stateMutability": "nonpayable",
      "type": "function"
    },
    {
      "inputs": [
        {
          "internalType": "address[]",
          "name": "recipients",
          "type": "address[]"
        },
        {
          "internalType": "string[]",
          "name": "uris",
          "type": "string[]"
        }
      ],
      "name": "mintBatchWithURIs",
      "outputs": [
        {
          "internalType": "uint256[]",
          "name": "tokenIds",
          "type": "uint256[]"
        }
      ],
      "stateMutability": "nonpayable",
      "type": "function"
    },
    {
      "inputs": [
        {
          "internalType": "address",
          "name": "to",
          "type": "address"
        },
        {
          "internalType": "string",
          "name": "uri",
          "type": "string"
        }
      ],
      "name": "mintOne",
      "outputs": [
        {
          "internalType": "uint256",
          "name": "tokenId",
          "type": "uint256"
        }
      ],
      "stateMutability": "nonpayable",
      "type": "function"
    },
    {
      "inputs": [],
      "name": "minter",
      "outputs": [
        {
          "internalType": "address",
          "name": "",
          "type": "address"
        }
      ],
      "stateMutability": "view",
      "type": "function"
    },
    {
      "inputs": [],
      "name": "name",
      "outputs": [
        {
          "internalType": "string",
          "name": "",
          "type": "string"
        }
      ],
      "stateMutability": "view",
      "type": "function"
    },
    {
      "inputs": [],
      "name": "owner",
      "outputs": [
        {
          "internalType": "address",
          "name": "",
          "type": "address"
        }
      ],
      "stateMutability": "view",
      "type": "function"
    },
    {
      "inputs": [
        {
          "internalType": "uint256",
          "name": "tokenId",
          "type": "uint256"
        }
      ],
      "name": "ownerOf",
      "outputs": [
        {
          "internalType": "address",
          "name": "",
          "type": "address"
        }
      ],
      "stateMutability": "view",
      "type": "function"
    },
    {
      "inputs": [],
      "name": "renounceOwnership",
      "outputs": [],
      "stateMutability": "nonpayable",
      "type": "function"
    },
    {
      "inputs": [
        {
          "internalType": "address",
          "name": "from",
          "type": "address"
        },
        {
          "internalType": "address",
          "name": "to",
          "type": "address"
        },
        {
          "internalType": "uint256",
          "name": "tokenId",
          "type": "uint256"
        }
      ],
      "name": "safeTransferFrom",
      "outputs": [],
      "stateMutability": "nonpayable",
      "type": "function"
    },
    {
      "inputs": [
        {
          "internalType": "address",
          "name": "from",
          "type": "address"
        },
        {
          "internalType": "address",
          "name": "to",
          "type": "address"
        },
        {
          "internalType": "uint256",
          "name": "tokenId",
          "type": "uint256"
        },
        {
          "internalType": "bytes",
          "name": "data",
          "type": "bytes"
        }
      ],
      "name": "safeTransferFrom",
      "outputs": [],
      "stateMutability": "nonpayable",
      "type": "function"
    },
    {
      "inputs": [
        {
          "internalType": "address",
          "name": "operator",
          "type": "address"
        },
        {
          "internalType": "bool",
          "name": "approved",
          "type": "bool"
        }
      ],
      "name": "setApprovalForAll",
      "outputs": [],
      "stateMutability": "nonpayable",
      "type": "function"
    },
    {
      "inputs": [
        {
          "internalType": "address",
          "name": "newMinter",
          "type": "address"
        }
      ],
      "name": "setMinter",
      "outputs": [],
      "stateMutability": "nonpayable",
      "type": "function"
    },
    {
      "inputs": [
        {
          "internalType": "bytes4",
          "name": "interfaceId",
          "type": "bytes4"
        }
      ],
      "name": "supportsInterface",
      "outputs": [
        {
          "internalType": "bool",
          "name": "",
          "type": "bool"
        }
      ],
      "stateMutability": "view",
      "type": "function"
    },
    {
      "inputs": [],
      "name": "symbol",
      "outputs": [
        {
          "internalType": "string",
          "name": "",
          "type": "string"
        }
      ],
      "stateMutability": "view",
      "type": "function"
    },
    {
      "inputs": [
        {
          "internalType": "uint256",
          "name": "tokenId",
          "type": "uint256"
        }
      ],
      "name": "tokenURI",
      "outputs": [
        {
          "internalType": "string",
          "name": "",
          "type": "string"
        }
      ],
      "stateMutability": "view",
      "type": "function"
    },
    {
      "inputs": [
        {
          "internalType": "address",
          "name": "from",
          "type": "address"
        },
        {
          "internalType": "address",
          "name": "to",
          "type": "address"
        },
        {
          "internalType": "uint256",
          "name": "tokenId",
          "type": "uint256"
        }
      ],
      "name": "transferFrom",
      "outputs": [],
      "stateMutability": "nonpayable",
      "type": "function"
    },
    {
      "inputs": [
        {
          "internalType": "address",
          "name": "newOwner",
          "type": "address"
        }
      ],
      "name": "transferOwnership",
      "outputs": [],
      "stateMutability": "nonpayable",
      "type": "function"
    }
  ],
  "bytecode": "0x608060405234801561000f575f5ffd5b50604051611ed9380380611ed983398101604081905261002e9161017f565b816040518060400160405280600c81526020016b5843414e204d6f64756c657360a01b815250604051806040016040528060048152602001632c21a0a760e11b815250815f908161007f9190610248565b50600161008c8282610248565b5050506001600160a01b0381166100bc57604051631e4fbdf760e01b81525f600482015260240160405180910390fd5b6100c581610113565b50600980546001600160a01b0319166001600160a01b0383169081179091556040517fad0f299ec81a386c98df0ac27dae11dd020ed1b56963c53a7292e7a3a314539a905f90a25050610302565b600780546001600160a01b038381166001600160a01b0319831681179093556040519116919082907f8be0079c531659141344cd1fd0a4f28419497f9722a3daafe3b4186f6b6457e0905f90a35050565b80516001600160a01b038116811461017a575f5ffd5b919050565b5f5f60408385031215610190575f5ffd5b61019983610164565b91506101a760208401610164565b90509250929050565b634e487b7160e01b5f52604160045260245ffd5b600181811c908216806101d857607f821691505b6020821081036101f657634e487b7160e01b5f52602260045260245ffd5b50919050565b601f82111561024357805f5260205f20601f840160051c810160208510156102215750805b601f840160051c820191505b81811015610240575f815560010161022d565b50505b505050565b81516001600160401b03811115610261576102616101b0565b6102758161026f84546101c4565b846101fc565b6020601f8211600181146102a7575f83156102905750848201515b5f19600385901b1c1916600184901b178455610240565b5f84815260208120601f198516915b828110156102d657878501518255602094850194600190920191016102b6565b50848210156102f357868401515f19600387901b60f8161c191681555b50505050600190811b01905550565b611bca8061030f5f395ff3fe608060405234801561000f575f5ffd5b5060043610610132575f3560e01c80638da5cb5b116100b4578063c1c0069011610079578063c1c0069014610287578063c65643101461029a578063c87b56dd146102ad578063e985e9c5146102c0578063f2fde38b146102d3578063fca3b5aa146102e6575f5ffd5b80638da5cb5b1461022857806395d89b4114610239578063a22cb46514610241578063b88d4fde14610254578063c16f7dab14610267575f5ffd5b806323b872dd116100fa57806323b872dd146101c657806342842e0e146101d95780636352211e146101ec57806370a08231146101ff578063715018a614610220575f5ffd5b806301ffc9a71461013657806306fdde031461015e5780630754617214610173578063081812fc1461019e578063095ea7b3146101b1575b5f5ffd5b6101496101443660046114d0565b6102f9565b60405190151581526020015b60405180910390f35b610166610309565b6040516101559190611519565b600954610186906001600160a01b031681565b6040516001600160a01b039091168152602001610155565b6101866101ac36600461152b565b610398565b6101c46101bf36600461155d565b6103bf565b005b6101c46101d4366004611585565b6103ce565b6101c46101e7366004611585565b61045c565b6101866101fa36600461152b565b61047b565b61021261020d3660046115bf565b610485565b604051908152602001610155565b6101c46104ca565b6007546001600160a01b0316610186565b6101666104dd565b6101c461024f3660046115d8565b6104ec565b6101c4610262366004611625565b6104f7565b61027a610275366004611783565b61050f565b60405161015591906117ed565b61021261029536600461182f565b610715565b61027a6102a836600461187d565b610816565b6101666102bb36600461152b565b610a7c565b6101496102ce3660046118db565b610a87565b6101c46102e13660046115bf565b610ab4565b6101c46102f43660046115bf565b610af1565b5f61030382610b42565b92915050565b60605f80546103179061190c565b80601f01602080910402602001604051908101604052809291908181526020018280546103439061190c565b801561038e5780601f106103655761010080835404028352916020019161038e565b820191905f5260205f20905b81548152906001019060200180831161037157829003601f168201915b5050505050905090565b5f6103a282610b66565b505f828152600460205260409020546001600160a01b0316610303565b6103ca828233610b9e565b5050565b6001600160a01b0382166103fc57604051633250574960e11b81525f60048201526024015b60405180910390fd5b5f610408838333610bab565b9050836001600160a01b0316816001600160a01b031614610456576040516364283d7b60e01b81526001600160a01b03808616600483015260248201849052821660448201526064016103f3565b50505050565b61047683838360405180602001604052805f8152506104f7565b505050565b5f61030382610b66565b5f6001600160a01b0382166104af576040516322718ad960e21b81525f60048201526024016103f3565b506001600160a01b03165f9081526003602052604090205490565b6104d2610c9d565b6104db5f610cca565b565b6060600180546103179061190c565b6103ca338383610d1b565b6105028484846103ce565b6104563385858585610db9565b60606105236007546001600160a01b031690565b6001600160a01b0316336001600160a01b0316148061054c57506009546001600160a01b031633145b6105685760405162461bcd60e51b81526004016103f390611944565b83806105a65760405162461bcd60e51b815260206004820152600d60248201526c6e6f20726563697069656e747360981b60448201526064016103f3565b806001600160401b038111156105be576105be611611565b6040519080825280602002602001820160405280156105e7578160200160208202803683370190505b5091505f5b8181101561070b57600880545f91826106048361196c565b91905055905061063a88888481811061061f5761061f611990565b905060200201602081019061063491906115bf565b82610ee1565b6106798187878080601f0160208091040260200160405190810160405280939291908181526020018383808284375f92019190915250610efa92505050565b8084838151811061068c5761068c611990565b602002602001018181525050808888848181106106ab576106ab611990565b90506020020160208101906106c091906115bf565b6001600160a01b03167fe7cd4ce7f2a465edc730269a1305e8a48bad821e8fb7e152ec413829c01a53c488886040516106fa9291906119a4565b60405180910390a3506001016105ec565b5050949350505050565b5f6107286007546001600160a01b031690565b6001600160a01b0316336001600160a01b0316148061075157506009546001600160a01b031633145b61076d5760405162461bcd60e51b81526004016103f390611944565b60088054905f61077c8361196c565b91905055905061078c8482610ee1565b6107cb8184848080601f0160208091040260200160405190810160405280939291908181526020018383808284375f92019190915250610efa92505050565b80846001600160a01b03167fe7cd4ce7f2a465edc730269a1305e8a48bad821e8fb7e152ec413829c01a53c485856040516108079291906119a4565b60405180910390a39392505050565b606061082a6007546001600160a01b031690565b6001600160a01b0316336001600160a01b0316148061085357506009546001600160a01b031633145b61086f5760405162461bcd60e51b81526004016103f390611944565b83806108ad5760405162461bcd60e51b815260206004820152600d60248201526c6e6f20726563697069656e747360981b60448201526064016103f3565b8083146108ee5760405162461bcd60e51b815260206004820152600f60248201526e0d8cadccee8d040dad2e6dac2e8c6d608b1b60448201526064016103f3565b806001600160401b0381111561090657610906611611565b60405190808252806020026020018201604052801561092f578160200160208202803683370190505b5091505f5b8181101561070b57600880545f918261094c8361196c565b91905055905061096788888481811061061f5761061f611990565b6109c88187878581811061097d5761097d611990565b905060200281019061098f91906119d2565b8080601f0160208091040260200160405190810160405280939291908181526020018383808284375f92019190915250610efa92505050565b808483815181106109db576109db611990565b602002602001018181525050808888848181106109fa576109fa611990565b9050602002016020810190610a0f91906115bf565b6001600160a01b03167fe7cd4ce7f2a465edc730269a1305e8a48bad821e8fb7e152ec413829c01a53c4888886818110610a4b57610a4b611990565b9050602002810190610a5d91906119d2565b604051610a6b9291906119a4565b60405180910390a350600101610934565b606061030382610f49565b6001600160a01b039182165f90815260056020908152604080832093909416825291909152205460ff1690565b610abc610c9d565b6001600160a01b038116610ae557604051631e4fbdf760e01b81525f60048201526024016103f3565b610aee81610cca565b50565b610af9610c9d565b600980546001600160a01b0319166001600160a01b0383169081179091556040517fad0f299ec81a386c98df0ac27dae11dd020ed1b56963c53a7292e7a3a314539a905f90a250565b5f6001600160e01b03198216632483248360e11b1480610303575061030382611054565b5f818152600260205260408120546001600160a01b03168061030357604051637e27328960e01b8152600481018490526024016103f3565b61047683838360016110a3565b5f828152600260205260408120546001600160a01b0390811690831615610bd757610bd78184866111a7565b6001600160a01b03811615610c1157610bf25f855f5f6110a3565b6001600160a01b0381165f90815260036020526040902080545f190190555b6001600160a01b03851615610c3f576001600160a01b0385165f908152600360205260409020805460010190555b5f8481526002602052604080822080546001600160a01b0319166001600160a01b0389811691821790925591518793918516917fddf252ad1be2c89b69c2b068fc378daa952ba7f163c4a11628f55a4df523b3ef91a4949350505050565b6007546001600160a01b031633146104db5760405163118cdaa760e01b81523360048201526024016103f3565b600780546001600160a01b038381166001600160a01b0319831681179093556040519116919082907f8be0079c531659141344cd1fd0a4f28419497f9722a3daafe3b4186f6b6457e0905f90a35050565b6001600160a01b038216610d4d57604051630b61174360e31b81526001600160a01b03831660048201526024016103f3565b6001600160a01b038381165f81815260056020908152604080832094871680845294825291829020805460ff191686151590811790915591519182527f17307eab39ab6107e8899845ad3d59bd9653f200f220920489ca2b5937696c31910160405180910390a3505050565b6001600160a01b0383163b15610eda57604051630a85bd0160e11b81526001600160a01b0384169063150b7a0290610dfb908890889087908790600401611a14565b6020604051808303815f875af1925050508015610e35575060408051601f3d908101601f19168201909252610e3291810190611a50565b60015b610e9c573d808015610e62576040519150601f19603f3d011682016040523d82523d5f602084013e610e67565b606091505b5080515f03610e9457604051633250574960e11b81526001600160a01b03851660048201526024016103f3565b805160208201fd5b6001600160e01b03198116630a85bd0160e11b14610ed857604051633250574960e11b81526001600160a01b03851660048201526024016103f3565b505b5050505050565b6103ca828260405180602001604052805f81525061120b565b5f828152600660205260409020610f118282611aaf565b506040518281527ff8e1a15aba9398e019f0b49df1a4fde98ee17ae345cb5f6b5e2c27f5033e8ce79060200160405180910390a15050565b6060610f5482610b66565b505f8281526006602052604081208054610f6d9061190c565b80601f0160208091040260200160405190810160405280929190818152602001828054610f999061190c565b8015610fe45780601f10610fbb57610100808354040283529160200191610fe4565b820191905f5260205f20905b815481529060010190602001808311610fc757829003601f168201915b505050505090505f61100060408051602081019091525f815290565b905080515f03611011575092915050565b81511561104357808260405160200161102b929190611b80565b60405160208183030381529060405292505050919050565b61104c84611222565b949350505050565b5f6001600160e01b031982166380ac58cd60e01b148061108457506001600160e01b03198216635b5e139f60e01b145b8061030357506301ffc9a760e01b6001600160e01b0319831614610303565b80806110b757506001600160a01b03821615155b15611178575f6110c684610b66565b90506001600160a01b038316158015906110f25750826001600160a01b0316816001600160a01b031614155b801561110557506111038184610a87565b155b1561112e5760405163a9fbf51f60e01b81526001600160a01b03841660048201526024016103f3565b81156111765783856001600160a01b0316826001600160a01b03167f8c5be1e5ebec7d5bd14f71427d1e84f3dd0314c0f7b2291e5b200ac8c7c3b92560405160405180910390a45b505b50505f90815260046020526040902080546001600160a01b0319166001600160a01b0392909216919091179055565b6111b2838383611293565b610476576001600160a01b0383166111e057604051637e27328960e01b8152600481018290526024016103f3565b60405163177e802f60e01b81526001600160a01b0383166004820152602481018290526044016103f3565b61121583836112f4565b610476335f858585610db9565b606061122d82610b66565b505f61124360408051602081019091525f815290565b90505f8151116112615760405180602001604052805f81525061128c565b8061126b84611355565b60405160200161127c929190611b80565b6040516020818303038152906040525b9392505050565b5f6001600160a01b0383161580159061104c5750826001600160a01b0316846001600160a01b031614806112cc57506112cc8484610a87565b8061104c5750505f908152600460205260409020546001600160a01b03908116911614919050565b6001600160a01b03821661131d57604051633250574960e11b81525f60048201526024016103f3565b5f61132983835f610bab565b90506001600160a01b03811615610476576040516339e3563760e11b81525f60048201526024016103f3565b60605f611361836113e4565b60010190505f816001600160401b0381111561137f5761137f611611565b6040519080825280601f01601f1916602001820160405280156113a9576020820181803683370190505b5090508181016020015b5f19016f181899199a1a9b1b9c1cb0b131b232b360811b600a86061a8153600a85049450846113b357509392505050565b5f8072184f03e93ff9f4daa797ed6e38ed64bf6a1f0160401b83106114225772184f03e93ff9f4daa797ed6e38ed64bf6a1f0160401b830492506040015b6d04ee2d6d415b85acef8100000000831061144e576d04ee2d6d415b85acef8100000000830492506020015b662386f26fc10000831061146c57662386f26fc10000830492506010015b6305f5e1008310611484576305f5e100830492506008015b612710831061149857612710830492506004015b606483106114aa576064830492506002015b600a83106103035760010192915050565b6001600160e01b031981168114610aee575f5ffd5b5f602082840312156114e0575f5ffd5b813561128c816114bb565b5f81518084528060208401602086015e5f602082860101526020601f19601f83011685010191505092915050565b602081525f61128c60208301846114eb565b5f6020828403121561153b575f5ffd5b5035919050565b80356001600160a01b0381168114611558575f5ffd5b919050565b5f5f6040838503121561156e575f5ffd5b61157783611542565b946020939093013593505050565b5f5f5f60608486031215611597575f5ffd5b6115a084611542565b92506115ae60208501611542565b929592945050506040919091013590565b5f602082840312156115cf575f5ffd5b61128c82611542565b5f5f604083850312156115e9575f5ffd5b6115f283611542565b915060208301358015158114611606575f5ffd5b809150509250929050565b634e487b7160e01b5f52604160045260245ffd5b5f5f5f5f60808587031215611638575f5ffd5b61164185611542565b935061164f60208601611542565b92506040850135915060608501356001600160401b03811115611670575f5ffd5b8501601f81018713611680575f5ffd5b80356001600160401b0381111561169957611699611611565b604051601f8201601f19908116603f011681016001600160401b03811182821017156116c7576116c7611611565b6040528181528282016020018910156116de575f5ffd5b816020840160208301375f6020838301015280935050505092959194509250565b5f5f83601f84011261170f575f5ffd5b5081356001600160401b03811115611725575f5ffd5b6020830191508360208260051b850101111561173f575f5ffd5b9250929050565b5f5f83601f840112611756575f5ffd5b5081356001600160401b0381111561176c575f5ffd5b60208301915083602082850101111561173f575f5ffd5b5f5f5f5f60408587031215611796575f5ffd5b84356001600160401b038111156117ab575f5ffd5b6117b7878288016116ff565b90955093505060208501356001600160401b038111156117d5575f5ffd5b6117e187828801611746565b95989497509550505050565b602080825282518282018190525f918401906040840190835b81811015611824578351835260209384019390920191600101611806565b509095945050505050565b5f5f5f60408486031215611841575f5ffd5b61184a84611542565b925060208401356001600160401b03811115611864575f5ffd5b61187086828701611746565b9497909650939450505050565b5f5f5f5f60408587031215611890575f5ffd5b84356001600160401b038111156118a5575f5ffd5b6118b1878288016116ff565b90955093505060208501356001600160401b038111156118cf575f5ffd5b6117e1878288016116ff565b5f5f604083850312156118ec575f5ffd5b6118f583611542565b915061190360208401611542565b90509250929050565b600181811c9082168061192057607f821691505b60208210810361193e57634e487b7160e01b5f52602260045260245ffd5b50919050565b6020808252600e908201526d1b9bdd08185d5d1a1bdc9a5e995960921b604082015260600190565b5f6001820161198957634e487b7160e01b5f52601160045260245ffd5b5060010190565b634e487b7160e01b5f52603260045260245ffd5b60208152816020820152818360408301375f818301604090810191909152601f909201601f19160101919050565b5f5f8335601e198436030181126119e7575f5ffd5b8301803591506001600160401b03821115611a00575f5ffd5b60200191503681900382131561173f575f5ffd5b6001600160a01b03858116825284166020820152604081018390526080606082018190525f90611a46908301846114eb565b9695505050505050565b5f60208284031215611a60575f5ffd5b815161128c816114bb565b601f82111561047657805f5260205f20601f840160051c81016020851015611a905750805b601f840160051c820191505b81811015610eda575f8155600101611a9c565b81516001600160401b03811115611ac857611ac8611611565b611adc81611ad6845461190c565b84611a6b565b6020601f821160018114611b0e575f8315611af75750848201515b5f19600385901b1c1916600184901b178455610eda565b5f84815260208120601f198516915b82811015611b3d5787850151825560209485019460019092019101611b1d565b5084821015611b5a57868401515f19600387901b60f8161c191681555b50505050600190811b01905550565b5f81518060208401855e5f93019283525090919050565b5f61104c611b8e8386611b69565b84611b6956fea2646970667358221220377d96bc0ede1e9d468175d4462c5d163125d5f16476f1ea12a32a6d1c67d05564736f6c634300081c0033",
  "linkReferences": {},
  "deployedLinkReferences": {},
  "immutableReferences": {},
  "inputSourceName": "project/contracts/XCAN.sol",
  "buildInfoId": "solc-0_8_28-836e6b9a4247f9338db2bf9df0d9a2c07af74311"
}